:020000041008E2
:4000000000780408F90208100D00000061030810610308106103081061030810000000000000000000000000000000005D0308105D030810000000005D0308105D0308104C
:400040005D0308105D0308105D0308105D0308105D0308105D0308105D0308105D0308105D0308105D0308105D0308105D0308105D0308105D0308105D0308105D03081000
:400080005D0308105D0308105D0308105D0308105D0308105D0308105D0308105D0308105D0308105D0308105D0308105D0308105D030810150608105D0308105D03081005
:4000C0005D0308105D0308105D0308105D0308105D0308105D0308105D0308105D0308105D0308105D0308105D0308105D0308105D0308105D0308105D0308105D03081080
:400100005D0308105D0308105D0308105D0308105D0308105D0308105D0308105D0308105D0308105D0308105D0308105D0308105D0308105D0308105D0308105D0308103F
:400140005D0308105D0308105D0308105D0308105D0308105D0308105D0308105D0308105D0308105D0308105D0308105D0308105D0308105D0308105D0308105D030810FF
:400180005D0308105D0308105D0308105D0308105D0308105D0308105D0308105D0308105D0308105D0308105D0308105D0308105D0308105D0308105D0308105D030810BF
:4001C0005D0308105D0308105D0308105D0308105D0308105D0308105D0308105D0308105D0308105D0308105D0308105D0308105D0308105D0308105D0308105D0308107F
:400200005D0308105D0308105D0308105D0308105D0308105D0308105D0308105D0308105D0308105D0308105D0308105D0308105D0308105D0308105D0308105D0308103E
:400240005D0308105D0308105D0308105D0308105D0308105D0308105D0308105D0308105D0308105D0308105D0308105D0308105D0308105D0308105D0308105D030810FE
:400280005D0308105D0308105D03081010B5054C237833B9044B13B10448AFF300800123237010BD9C47020800000000DC150810084B10B51BB108490848AFF30080084847
:4002C000036803B910BD074B002BFBD0BDE81040184700BF00000000A0470208DC150810B4420208000000007047EFF3108072B6704780F310887047FFF7F6FF72B6114C7B
:40030000114DAC4209DA21686268A368043BA2BFC858D050FAE70C34F3E70C490C4A00209142BCBF41F8040BFAE70A480A490860BFF34F8F00F05AF900F034F900F036F8F8
:40034000FEE70000E0150810F81508109C470208C44902080040020808ED00E0FEE7FEE700B504207146084202D0EFF3098001E0EFF30880043000F063FFFEE710B582B0B5
:40038000094C04220DEB0201204600F099FC04220DEB0201204600F0BDFC0123C4F8C03FD4F8C03F02B010BD0000664008B562B6154C1649204600F08BF9B4F90030002B66
:4003C00008DB5A0903F01F00012181406032104840F82210002B08DB590903F01F03012202FA03F30A4A42F8213000F035F94FF47A7000F0FBFE074C082565604FF47A704F
:4004000000F0F4FEA560F2E78C1308107D03081000E100E000003240704700BF5A4AD2F8803303F00F0303F1D00152F8212012F0070202D0042A02D00FE0544911E003F140
:40044000C002514951F8222002F01F02112A06D0132A04D04FF4FA4103E04D4901E04FF400418BBB484BD3F8902502F00100D3F88825C2F30172D3F8883513F0405F07D017
:40048000414BD3F88835C3F30173012B02D102E0012300E0002303B108B9032A46D13A48D0F88025C2F31103D0F88425C2F30C02D0F88005C0F300600130B1FBF2F202FB33
:4004C00003F2B2FBF0F131E0012B2FD12E4BD3F8402602F00100D3F80026C2F30172D3F8003613F0405F07D0274BD3F80036C3F30173012B02D102E0012300E0002303B1B3
:4005000008B9032A12D12048D0F8002602F07F02D0F80036C3F30423D0F80006C0F3044002FB01F2B2FBF3F2B2FBF0F1164BD3F88033C3F3011321FA03F216490A60164891
:40054000D0F89030C3F3072301330069000E0130B2FBF0F04860B2FBF3F38B60CB6003F5742202F23F220D48A0FB0202C2F387420A7403F2E7330A4AA2FB03239B094B6110
:40058000DB038B61704700BF0000264000127A0000366E018C4202080000214083DE1B43D34D621008B5104BD3F8802122F0404242F08042C3F88021D3F8802142F0004292
:4005C000C3F88021D3F8802122F00102C3F88021FFF722FFFFF722FF00F024F800F02AF800F0DEFD08BD00BF0000264008B5FFF77CFE074AD2F8883043F47003C2F88830A5
:40060000BFF34F8FBFF36F8FFFF773FE08BD00BF00ED00E008B5024800F0DEFA08BD00BFE447020808B500221146042000F0DAF808BD00BF10B500F060FE0446044800F001
:400640008DF9044800F0EEF9204600F05AFE10BDB84702085813081008B5084B1B783BB9074A0849084800F06BFB0122034B1A70054A136843F00043136008BD38490208ED
:400680008C490208941308100000664038B50C4B9A680C4B9A420ED10D46044619B9FC21094800F0BDFD04F11003064A52F8230042F8235038BD1030044B53F8200038BDC1
:4006C00000ED00E000400208D41308100000081070B338B504460D464368072B03D93621154800F09DFDB4F900306268002B08DB5201D2B203F1604303F5614383F80023CB
:4007000005E003F00F035201D2B20C49CA540C4B9A680C4B9A420DD11DB94521064800F07FFD2946B4F90000FFF7B0FF002038BD05487047002038BDD413081014ED00E056
:4007400000ED00E0004002080100560038B50369002B0DDA0D4604460B0C1B0423B140F2A721044800F05CFDA9B26160002038BD014838BD1814081001008A0038B50368D4
:40078000002B01DA002300E0094B73B90D460446C2600B0C1B0423B140F28E21054800F03FFDA9B2A160002038BD014838BD00BF01008A001814081038B504460D4619B9F4
:4007C0009921064800F02CFD2369002B03DAE3682B60002038BD024838BD00BF5814081001008A000F2840D8F8B515460E46044682B979B90F2804D940F29D11214800F09D
:400800000FFD600100F1804000F50C101E4B18600020F8BD5DB366B316F01F0F2BD10F2C04D940F29D11174800F0FAFC640104F1804404F50C14144F3C607E60BD60F20812
:400840000021284600F060FD00212046FFF77EFF3A4652F8040B0021FFF790FF68B900213868FFF773FF50B9F8BD084870470748F8BD0648F8BD0548F8BD0548F8BD0448BD
:40088000F8BD00BF981408103C49020803018A0001018A002DE9F0411B4B1B68DC68236883422CD90D464609A0EB4610012303FA00F819B900F021FD074600E00027124B61
:4008C00018680368002B01DA002300E00F4B83B9626852F8263018EA030F05D023EA080342F82630002400E0094C0021FFF72EFF00E0084C25B9384600F003FD00E0064C24
:400900002046BDE8F08100BF3C49020801008A00020188000301880004018A000B4B1B68DB681A6882420CD94109A0EB4110012202FA00F05B6853F82130184203D0044868
:400940007047044870470448704700BF3C4902080101880004018A0000018800024B1B680BB9014B18607047484902082DE9F8430446884691461E46089F072803D9B421F5
:40098000244800F04DFC244B1B682C2000FB04F01C18F5B21D50C6F307236360360CA6600F2D04D940F29D111C4800F039FC6D0105F1804505F50C15256165680F2D04D9FD
:4009C0004FF4DC71154800F02BFC154B03EB45156561A668330C1B0423B14FF4EB710F4800F01EFC330C1B0423B140F2D7110B4800F016FCB3B243EA0646AE60C4F81C9050
:400A0000C4F820800023A36117B1B7F90030A381BDE8F883D8140810484902089814081000102340F0B58FB0044618B950212C4800F0F6FBA369072B03D95421284800F0BD
:400A4000EFFBE36A1BB95621254800F0E9FBE368072B03D95721224800F0E2FB236A072B03D958211E4800F0DBFB236B1BB959211B4800F0D5FB07AE04F114050FCD0FC6F8
:400A80002F6802AD26460FCE0FC533682B60079B1933ADF83030089B0D93A26AE16A0CAD00953B460A98FFF761FF00210091069B0A460598FFF75AFF216B2846FFF708FED4
:400AC000BDF93030002B08DB590903F01F03012202FA03F3034A42F821300FB0F0BD00BFD814081000E100E0F8B507460E461D4614461AB9FC21224800F092FB072F03D98A
:400B0000FD211F4800F08CFB072E03D9FE211C4800F086FB1B4B1B682C2202FB073002FB06367368012202FA03F31B04476802FA07F70269EAB1B169E9B91268002A01DA17
:400B4000002200E0104AC2B92288134323600369DC600123B361756204693B0C1B0423B140F28E21094800F05BFBBAB2A2600020F8BD0748F8BD0748F8BD0648F8BD00BF38
:400B8000D81408104849020801008A009814081004028A0007028A0070B504460E461546072804D940F25F11084800F039FB084B1B682C2202FB0434E369AB4204D9236AE8
:400BC00043F82560002070BD024870BDD8140810484902080A028A0070B582B000230193044620B94FF4D971264800F019FB236923B940F2B311234800F012FB636923B99E
:400C00004FF4DA711F4800F00BFB236A23B940F2B5111C4800F004FB6369DD682A0C1CD012041A601B6820690369002B15DA01A9FFF7C2FD60B9019803681E0CDBB2E26942
:400C4000934206D2226A52F8233013B1984700E0002631462069FFF779FDADB275B16369ADB21D601B68636A1BB198470023636202E0A36A03B198470023A36163691B6881
:400C800002B070BDD814081010B4D0F8003303F00F03072B06D900230DE0D0F84043CC54013300E000239342F7D306E0D0F8404321F8134001339342F8D35DF8044B70475F
:400CC00010B51446D0F80833C3F308039A4200D31C462246FFF7D8FF204610BD10B4D0F8003203F00F03072B06D900230DE0CC5CC0F84042013300E000239342F7D306E096
:400D000031F81340C0F8404201339342F8D35DF8044B704710B51446036813F4006F01D0802200E04022D0F80832C3F30803D31AA34200D81C462246FFF7D0FF204610BDEA
:400D4000002800F0A98170B50546002900F0A6819E4B984200F0A48116460C460B78022B03D942219A4800F05BFA637B023BDBB2062B03D94321964800F052FAA37B3BB1A8
:400D8000022B05D0032B03D04421914800F048FA94F82130012B03D945218D4800F040FA94F82830012B03D94621894800F038FA2378012B06D86368083B082B94BF0023D4
:400DC000012307E0A37F2BB16368013B062B94BF002301231BB148217D4800F021FAA368053B042B03D94921794800F019FA6369FF2B03D94A21764800F012FAA369FF2B62
:400E000003D94B21724800F00BFAA37C6BB1237833B9A368092B05D1A37B2BB1012304E0012302E0012300E000231BB14D21684800F0F6F9636B23F4366323F00D031BB17F
:400E40004F21634800F0ECF9E36B23F4EE6323F003031BB150215E4800F0E2F92378022B01D1A37F13B163685A1E00E00022237F13B14FF4803100E00021A068082802D8D3
:400E80004FF4006300E00023194302F00F030B4343F000732B60236B2A6812F4006F01D0802200E04022934203D36521484800F0B7F9A36B2A6812F4006F01D0802200E097
:400EC0004022934203D36621414800F0A9F9636A2A6812F4006F01D0802200E04022934203D367213A4800F09BF923781B0603F040732B64637F0BB1402200E00022A17C71
:400F000011B14FF4806300E000231343227C12B14FF4807200E000221343627C12B14FF4007200E000221A43E36A013B1B0403F470231343627B013A02F007021343A27BBF
:400F4000120102F030021343AB64237B13B14FF4807200E00022E17B21B92378022B03D1012302E0012300E0002313B14FF4007300E000231A43A368013B03F00F031343C1
:400F8000C5F80033227DA3691B0403F47F031343C5F81033E26AD5F8003303F00F0303339A4201D3102A03D97D21094800F038F9E37F23B12378012B03D0002302E0002353
:400FC00000E0012333B14FF4807204E0000069409C1508100022637B013B03F007031A43A37B1B0103F0300313436B64237B13B14FF4807200E00022A368013B03F00F037E
:4010000013432278012A02D14FF4803200E000221343C5F8003294F83030C5F8043394F8203013B14FF0007100E0002194F82120012A02D14FF0807300E000230B4394F87B
:401040002820012A02D14FF4803200E00022134394F8242013432B6594F83830C5F80432636B23F4926323F002031B051B0DC5F8C83FE36B23F08C035B055B0DC5F8883F06
:4010800086B1002070603060B060F0603062F0623063054B736370BD04487047034870BD024870BD002070BDEFCDAB000160AA001F4B98422DD00CD840282ED003D8E8B19F
:4010C000102828D02FE0802829D0B0F5807F28D029E0184B984228D006D8B0F1204F0DD0154B984212D01EE0144B98420AD00133984209D0023B984215D101E000207047A2
:401100000F4870470F4870470F4870474FF4A0007047074870470D4870470D4870470D487047034870470C4870474FF4A400704706005200010000F0090000A0040000F030
:40114000010052000200520003005200010050000200500005005200FF00520008B50C4B1B69002B12DB0B4B1868FFF7A1FF0122094BC3F88C24084BD3F80C34002BFAD1D6
:40118000054BD3F88C34002BF5D108BD034808BD200023404C490208000025400200500000B583B05523ADF80030002301930C496846FFF78DFABDF90030002B08DB5909F3
:4011C00003F01F03012202FA03F3064A42F82130022205490120FFF7DFFC03B05DF804FBF942020800E100E01944020810B5044605E0084B186800F077F8A4F50044B4F566
:40120000004FF6D8044B186800FB04F000F06CF810BD00BFA4420208A042020801BEFEE738B50D46044C18220146204600F074F8A5610020FFF7F2FF08470208FEE700BF96
:4012400008B50268254BDA6142681A6282685A62C2689A620269DA6242691A6382695A63C2699A631E4A916AD963D16A1964516A5964516B9964926BDA64F1EE103A13F01C
:40128000900F27D0026A154B1A65426A5A65826A9A65C26ADA65026B1A66426B5A66826B9A66C26BDA66026C1A67426C5A67826C9A67C26CDA67026DC3F88020426DC3F8E8
:4012C0008420826DC3F88820C26DC3F88C20026EC3F89020FFF7B2FF08BD00BF0847020800ED00E0000000000230800803D001300238FCD100BF00BF7047EFF3108072B6A2
:40130000704780F31088704702440346934202D003F8011BFAE7704710B5034642B111F8014B03F8014B013A002CF7D11A4400E010BD934202D003F8014BFAE710BD0000DC
:40134000F8B500BFF8BC08BC9E467047F8B500BFF8BC08BC9E4670470300000001000000010000000000000005036000040000000100000000000000010000000604600092
:401380000800000018490208150608102E00000007000000000000000C0000000800000000020000000000000000000000000000000000000000000000000000000000003C
:4013C0000B0000000300000001000000000000000000000047656E6572617465645F536F757263655C50536F43365C70646C5C647269766572735C70657269706865726185
:401400006C5C737973696E745C63795F737973696E742E630000000047656E6572617465645F536F757263655C50536F43365C70646C5C647269766572735C7065726970AF
:40144000686572616C5C6970635C63795F6970635F6472762E68000047656E6572617465645F536F757263655C50536F43365C70646C5C647269766572735C7065726970FB
:40148000686572616C5C6970635C63795F6970635F6472762E63000047656E6572617465645F536F757263655C50536F43365C70646C5C647269766572732F7065726970ED
:4014C000686572616C2F6970632F63795F6970635F6472762E68000047656E6572617465645F536F757263655C50536F43365C70646C5C647269766572735C7065726970D5
:40150000686572616C5C6970635C63795F6970635F706970652E630047656E6572617465645F536F757263655C50536F43365C70646C5C647269766572735C7065726970DD
:40154000686572616C5C7363625C63795F7363625F756172742E680047656E6572617465645F536F757263655C50536F43365C70646C5C647269766572735C706572697092
:40158000686572616C5C7363625C63795F7363625F636F6D6D6F6E2E6800000047656E6572617465645F536F757263655C50536F43365C70646C5C647269766572735C7035
:4015C00065726970686572616C5C7363625C63795F7363625F756172742E63000000000000000810004002088C020000001608108C4202087C0400009C4702082802000093
:4016000000127A0000093D0000127A0000127A0008000000401F00000000A00F02FF0000B10208108D0208100000000080B2C300B0B13E210B4A116041F61E71043211604F
:40164000A2F584720621C2F8181523F07F43C2F81C35D2F81C35044BD3F81C35002BFADA704700BF040126400000264008B54FF26003404AD3589BB2A2F580229268013B51
:40168000032B76D8DFE803F0021F3C59032A02D10822394B9A60394A13691069C0F307221B0E581C02FB0000354B03FB00F0354B1B68354AA2FB03239B09B0FBF3F0823011
:4016C000FFF7B4FF08BD032A02D108222A4B9A602A4A13691069C0F307221B0E581C02FB0000274B03FB00F0264B1B68264AA2FB03239B09B0FBF3F08230FFF797FF08BD48
:40170000032A02D108221C4B9A601C4A13691069C0F307221B0E581C02FB0000184B03FB00F0184B1B68184AA2FB03239B09B0FBF3F08230FFF77AFF08BD032A02D10822AF
:401740000D4B9A600D4A13691069C0F307221B0E581C02FB00000A4B03FB00F0094B1B68094AA2FB03239B09B0FBF3F08230FFF75DFF08BD00002540A00023400000214061
:4017800040420F008C420208D34D621008B54378FF2B0ED100F05AF9064BDB685A68136843F001031360136813F0010FFBD100F03DF908BD80002340F8B505460E46264B0A
:4017C0001B69002B1FDB002000F038F9234B98421BD00023224A0121184600F03FF918B1204C15E0013400E00024002000F026F91A4B984202D01C4B9C42F3D91A4B9C429E
:4018000005D9184C04E0174C02E0164C00E0002404BB00F01BF90746144A0121144800F025F968B925B93046FFF700FF114C08E00F4B1B69002BFBDB00F0F0F8044600E04D
:40184000084C0121002000F0E1F80028F9D1384600F0ECF82046F8BDA000234001018800A842020805005200EF4902004C4902082000234001005000394B1B68002BFBDA1E
:4018800030B4374BDA6842F00102DA60DB6813F0020F20D0324DEB689CB232490A69120A120402F47F02D1F890301B0A42EA03632343EB600B6923F47F4343F410630B61BF
:4018C000D1F8903023F47F4343F41063C1F890300B69D1F89030224B00225A605B68224A136943F004031361012801D030BF07E020BF1E4B1B7803B120BF01221B4B1A7073
:40190000184BD3F8803003F00303022BE7D0144B1B68002BFBDA124BDB6813F0020F15D010490B6923F47F420D48C3681B0C1B0203F47F4313430B61D1F8903023F47F422C
:40194000C3681B0E42EA0323C1F89030044BDA6822F00102DA6000225A6030BC704700BFE00023400000214000ED00E05C4902081E4A136943F004031361012801D030BF8F
:4019800007E020BF1A4B1B7803B120BF0122184B1A70184BD3F8803003F00303022BE7D0154B1B68002BFBDA144BD3F80C31C3B941F61E72124B1A60062203F582631A6028
:4019C0003E22A3F214431A60442203F583631A600C4B1B68002BFBDA4FF0AA32074BC3F80C210022044B5A60704700BF00ED00E05C49020800002140E0002340000025400E
:401A0000080126401C0526400000000001B40248844601BC604700BF9508081001B40248844601BC604700BF5D11081001B40248844601BC604700BF0313081001B4024884
:401A4000844601BC604700BF1D09081001B40248844601BC604700BFFB12081001B40248844601BC604700BFE90A081001B40248844601BC604700BF7D07081000000000AB
:401A80000000000000000000000000000000000000000000000000000000000000000000000000000000000000000000000000000000000000000000000000000000000026
:401AC00000000000000000000000000000000000000000000000000000000000000000000000000000000000000000000000000000000000000000000000000000000000E6
:401B000000000000000000000000000000000000000000000000000000000000000000000000000000000000000000000000000000000000000000000000000000000000A5
:401B40000000000000000000000000000000000000000000000000000000000000000000000000000000000000000000000000000000000000000000000000000000000065
:401B80000000000000000000000000000000000000000000000000000000000000000000000000000000000000000000000000000000000000000000000000000000000025
:401BC00000000000000000000000000000000000000000000000000000000000000000000000000000000000000000000000000000000000000000000000000000000000E5
:0200000490303A
:02000000EE53BD
:0200000490501A
:0C0000000005E20621002101E20F0F5371
:00000001FF